:100000000C9462000C948A000C948A000C948A0070
:100010000C948A000C948A000C948A000C948A0038
:100020000C948A000C948A000C948A000C948A0028
:100030000C948A000C948A000C948A000C948A0018
:100040000C94A6040C948A000C948A000C948A00E8
:100050000C948A000C948A000C948A000C948A00F8
:100060000C948A000C948A000000000024002700F1
:100070002A0000000000250028002B0000000000DE
:1000800023002600290004040404040404040202DA
:100090000202020203030303030301020408102007
:1000A0004080010204081020010204081020000012
:1000B0000008000201000003040700000000000027
:1000C0000000630611241FBECFEFD8E0DEBFCDBF16
:1000D00011E0A0E0B1E0E2E0FDE002C005900D9289
:1000E000AC36B107D9F721E0ACE6B1E001C01D9212
:1000F000AD3AB207E1F710E0C2E6D0E004C02197C4
:10010000FE010E947906C136D107C9F70E94F004AA
:100110000C947F060C940000833081F028F4813029
:1001200099F08230A9F008958730A9F08830C9F09D
:100130008430B1F4809180008F7D03C08091800075
:100140008F7780938000089584B58F7784BD08955C
:1001500084B58F7DFBCF8091B0008F778093B00006
:1001600008958091B0008F7DF9CFCF93DF93282F32
:1001700030E0F901E255FF4F8491F901E656FF4F57
:10018000D491F901EA57FF4FC491CC23A1F081111A
:100190000E948C00EC2FF0E0EE0FFF1FE458FF4FA1
:1001A000A591B491EC91ED2381E090E009F480E019
:1001B000DF91CF91089580E090E0FACF1F93CF9325
:1001C000DF93282F30E0F901E255FF4F8491F901C8
:1001D000E656FF4FD491F901EA57FF4FC491CC2363
:1001E000A9F0162F81110E948C00EC2FF0E0EE0F89
:1001F000FF1FEE58FF4FA591B4918FB7F894EC9183
:10020000111108C0D095DE23DC938FBFDF91CF9111
:100210001F910895DE2BF8CFCF93DF9390E0FC0180
:10022000E656FF4F24918A579F4FFC018491882303
:10023000C9F090E0880F991FFC01E859FF4FA59184
:10024000B491FC01EE58FF4FC591D49161110DC0DE
:100250009FB7F8948C91209582238C9388812823D2
:1002600028839FBFDF91CF910895623051F49FB7EB
:10027000F8943C91822F809583238C93E8812E2BD8
:10028000EFCF8FB7F894EC912E2B2C938FBFEACF42
:10029000CF93C82F60E00E940C0161E08C2FCF91BA
:1002A0000C94DE00CF93C82F60E00E94DE0061E076
:1002B0008C2FCF910C940C01AF92BF92CF92DF9212
:1002C000EF92FF920F931F93CF93DF93182F80919C
:1002D000A9010E94B500892BD1F38091AB010E9446
:1002E000B500892BA1F38091AB019091AC010E94E4
:1002F0005201CBE4D0E0CE010197F1F78091A90142
:100300009091AA010E9452018BE990E00197F1F7C8
:100310008091A9019091AA010E9448012197F1F7CB
:10032000D8E0C1E02BE4C22ED12C3BE9A32EB12CA6
:10033000E12EF12C8091AB019091AC01012F017065
:1003400010FF6EC00E944801C6010197F1F780912D
:10035000A9019091AA010E945201C5010197F1F7EC
:100360008091A9019091AA010E944801C6010197BC
:10037000F1F7802F8C27F594E7941E2DD15009F0CA
:100380004DC08091AB019091AC010C1709F44BC0AA
:100390000E944801CBE4D0E0CE010197F1F78091B3
:1003A000A9019091AA010E9452010BE910E0C80135
:1003B0000197F1F78091A9019091AA010E9448014B
:1003C000CE010197F1F78091AB019091AC010E94B1
:1003D0004801CE010197F1F78091A9019091AA01FE
:1003E0000E945201C8010197F1F78091A9019091F3
:1003F000AA010E9448012197F1F78BE599E0019746
:10040000F1F790E080E0DF91CF911F910F91FF9085
:10041000EF90DF90CF90BF90AF900895C82F88CF16
:100420000E94520191CF0E945201B4CFCF93C82FA6
:1004300082EE0E945C0180EF0E945C018C2F0E9482
:100440005C0190E080E0CF9108953FB7F8948091EF
:10045000710190917201A0917301B091740126B560
:10046000A89B05C02F3F19F00196A11DB11D3FBFEC
:10047000BA2FA92F982F8827BC01CD01620F711DBB
:10048000811D911D42E0660F771F881F991F4A95B5
:10049000D1F708958F929F92AF92BF92CF92DF9241
:1004A000EF92FF924B015C010E9425026B017C01DF
:1004B0000E9425026C197D098E099F09683E7340D0
:1004C00081059105A8F321E0821A9108A108B108DD
:1004D00088EEC80E83E0D81EE11CF11C8114910443
:1004E000A104B10429F7FF90EF90DF90CF90BF9067
:1004F000AF909F908F900895CF93C82F823741F08F
:100500008B3631F08CE88C0F823010F0C13119F449
:1005100080EE0E945C0180EF0E945C018C2F0E94A3
:100520005C0180E0CF910895CF93C82F823741F0CE
:100530008B3631F08CE88C0F823010F0C13119F419
:1005400080EE0E945C018C2F0E945C0180E0CF91C4
:1005500008952F923F924F925F926F927F928F9267
:100560009F92AF92BF92CF92DF92EF92FF920F9342
:100570001F93CF93DF9300D000D01F92CDB7DEB78B
:100580005C01F62E3A0119011092A8018091A70191
:10059000882319F081508093A70160E08F2D0E947D
:1005A000DE00F50182810E94B5002801FCE0EF9E8B
:1005B000400C511C1124892B41F5F50183810E94C7
:1005C000B500892B11F581E08093A8014501F4E085
:1005D0008F0E911C610186E090E09D838C83F40175
:1005E00081914F010E94B500F601892B09F0CBC023
:1005F000868181119FC021E026832FEFC21AD20A83
:100600008C819D81079709F090C061E08F2D0E9439
:10061000DE00BA82A9822C823D828C809D801501E9
:10062000D12CC12CF10181911F010E94B500F40170
:10063000892B09F0FBC080818111D0C021E020838B
:100640002FEFC21AD20A8FEF881A980A96E0C916BD
:10065000D10441F78091A801882309F45FC160E0CB
:100660008F2D0E94DE00F50180810E94B500892B4C
:1006700009F054C1F50181810E94B500892B09F070
:100680004DC161E08F2D0E94DE0088E0C82ED12C84
:1006900093E0B92EAA24A394E981FA818191FA8387
:1006A000E9830E94B500EC81FD81892B09F00DC121
:1006B00080858111E5C0A0868C819D8101969D83F6
:1006C0008C839FEFC91AD90AECE0CE16D10421F72A
:1006D00060E08F2D0E94DE0061E08F2D0E94DE0021
:1006E00064E170E080E090E00E944A0260E08F2DBB
:1006F0000E94DE0061E08F2D0F900F900F900F9001
:100700000F90DF91CF911F910F91FF90EF90DF90AD
:10071000CF90BF90AF909F908F907F906F905F90A1
:100720004F903F902F900C94DE00E7E0F0E0FD83C7
:10073000EC8355CFEC81FD81E60DF71D80818111A1
:100740005CCF8091A701811158CF81E0808393E035
:100750009093A701EC81FD81EE2051F0E40DF51D91
:1007600080810E94940261E08DE00E94DE0045CF0E
:10077000E00FF11F2081298382EE0E945C018981B4
:100780000E945C01F0CF8681882339F09091A70107
:10079000911103C08150868330CFEC81FD81E60D3D
:1007A000F71D8081813009F028CF8091A701811148
:1007B00024CF1082F3E0F093A701EC81FD81EE20BD
:1007C00039F0E40DF51D80810E947C0260E0CCCF01
:1007D000E00FF11F80810E941602F8CFF301EC0DAB
:1007E000FD1D808181112CCF8091A701811128CF1F
:1007F00081E0808393E09093A701EE2059F0F2010D
:10080000EC0DFD1D80810E94940261E08DE00E944C
:10081000DE0016CFF801EC0DFD1D20812B8382EE4A
:100820000E945C018B810E945C01EFCF8081882354
:1008300039F09091A701911103C08150808300CFBE
:10084000F301EC0DFD1D8081813009F0F9CE80911E
:10085000A7018111F5CE1082F3E0F093A701EE20FD
:1008600041F0F201EC0DFD1D80810E947C0260E0F0
:10087000CDCFF801EC0DFD1D80810E941602F7CF4F
:10088000F301EC0DFD1D8081811116CF8091A70130
:10089000811112CFA082B092A701EE2059F0F2018F
:1008A000EC0DFD1D80810E94940261E08DE00E94AC
:1008B000DE0002CFF801EC0DFD1D908082EE0E945B
:1008C0005C01892D0E945C01F0CF8085882339F07E
:1008D0009091A701911103C081508087EDCEF30163
:1008E000EC0DFD1D8081813009F0E6CE8091A701DD
:1008F0008111E2CE1082B092A701EE2041F0F20108
:10090000EC0DFD1D80810E947C0260E0CFCFF801DC
:10091000EC0DFD1D80810E941602F7CF0F900F9005
:100920000F900F900F90DF91CF911F910F91FF903B
:10093000EF90DF90CF90BF90AF909F908F907F907F
:100940006F905F904F903F902F9008951F920F925D
:100950000FB60F9211242F933F938F939F93AF93D2
:10096000BF9380916D0190916E01A0916F01B09144
:10097000700130916C0123E0230F2D3758F501965B
:10098000A11DB11D20936C0180936D0190936E01A8
:10099000A0936F01B09370018091710190917201E9
:1009A000A0917301B09174010196A11DB11D8093B6
:1009B000710190937201A0937301B0937401BF9180
:1009C000AF919F918F913F912F910F900FBE0F90FC
:1009D0001F90189526E8230F0296A11DB11DD2CFB6
:1009E000789484B5826084BD84B5816084BD85B50A
:1009F000826085BD85B5816085BD80916E00816016
:100A000080936E00109281008091810082608093BB
:100A100081008091810081608093810080918000BD
:100A20008160809380008091B10084608093B100E8
:100A30008091B00081608093B00080917A008460E2
:100A400080937A0080917A00826080937A0080910E
:100A50007A00816080937A0080917A008068809328
:100A60007A001092C10061E08DE00E940C0161E00B
:100A70008DE00E94DE008AEA0E945C01892BD9F792
:100A80006AE070E080E090E00E944A02C6E6D1E0B1
:100A900062E089910E940C0181E0CC36D807C1F751
:100AA00061E088E00E940C018EE00E94B500892B75
:100AB000B1F48FE00E94B500019789F481E0809342
:100AC000A60161E08DE00E94DE0064EC79E080E048
:100AD00090E00E944A0260E08DE00E94DE008FE01C
:100AE0000E94B500892B51F58EE00E94B500019758
:100AF00029F582E08093A60161E08DE00E94DE008E
:100B000068EE73E080E090E00E944A0260E08DE0D1
:100B10000E94DE0068EE73E080E090E00E944A02EE
:100B200061E08DE00E94DE0064EF71E080E090E023
:100B30000E944A0260E08DE00E94DE0080E10E9497
:100B4000B500892BF1F581E10E94B5000197C9F547
:100B500083E08093A60161E08DE00E94DE0064EFF7
:100B600071E080E090E00E944A0260E08DE00E9427
:100B7000DE0064EF71E080E090E00E944A0261E0F4
:100B80008DE00E94DE0064EF71E080E090E00E9462
:100B90004A0260E08DE00E94DE0064EF71E080E0D8
:100BA00090E00E944A0261E08DE00E94DE0064EF66
:100BB00071E080E090E00E944A0260E08DE00E94D7
:100BC000DE00C0E3D1E062E089910E940C0181E087
:100BD000C633D807C1F761E086E00E940C0183E0CC
:100BE0000E94B500892B41F482E00E94B500019774
:100BF00019F481E080938D0182E00E94B500892B79
:100C000041F483E00E94B500019719F482E08093DB
:100C10008D0181E00E94B500892B41F480E00E94A3
:100C2000B500019719F483E080938D0160E08DE0B9
:100C30000E94DE00C0E0D0E0CC24C394E090A60186
:100C400006E311E02EE831E04AE951E068E086E68B
:100C500091E00E94A90282E0C82EE0908D0100E0A0
:100C600011E025E731E041E851E066E080E391E002
:100C70000E94A90282E10E94B500892BF9F488E75D
:100C80000E94940264EF71E080E090E00E944A02CA
:100C900088E70E947C0261E08DE00E94DE0061E056
:100CA00082E10E94DE0060ED77E080E090E00E944B
:100CB0004A02209709F20E940000BECF60E08DE05A
:100CC0000E94DE00F6CFCF93DF93C9EAD1E08CE03B
:100CD00090E0998388838AE090E09B838A838CE00C
:100CE00090E00E9448018A819B81DF91CF910C9412
:100CF0004801EE0FFF1F0590F491E02D0994F89440
:020D0000FFCF23
:100D02004E4F4C4D535452505756555175726B7449
:100D1200115A76051A35223A75726B74455A760362
:100D22001A35223A3D362E3E455A76051A35223A72
:100D320003020100040742434041474846444B4AEC
:100D42004945151C444D3A5A76051A3522217572C9
:100D52006B74455A76031A35223A3D362E3E455A71
:0C0D620076051A35223A0E0F10110B090D
:00000001FF
