:100000000C942B010C9453010C9453010C94530148
:100010000C9453010C9453010C9453010C94530110
:100020000C9453010C9453010C94200A0C948F0AE5
:100030000C9453010C9453010C9453010C945301F0
:100040000C9453010C9453010C9453010C945301E0
:100050000C9453010C9453010C9453010C94C10C57
:100060000C9453010C9453010C9453010C945301C0
:100070000C9453010C9453010C9453010C945301B0
:100080000C9453010C9453010C9453010C945301A0
:100090000C9453010C9453010C9453010C94530190
:1000A0000C9453010C9453010C9453010000000074
:1000B000240027002A002D00300000000000250049
:1000C00028002B002E003100000000002300260035
:1000D00029002C002F000404040404030405020278
:1000E00002020403020202020606060606060404D1
:1000F0000202020404040802011040804010204063
:10010000804080080204018040201002011080100D
:10011000204040200000000200090F0000030401FD
:10012000000C0000000000000000000000000000C3
:10013000000000080B000202020000090400000198
:10014000020200000524001001052401010104241D
:10015000020605240600010705810310004009047A
:100160000100020A00000007050202400000070526
:1001700083024000000403090412010002EF02019F
:100180004041233780000101020301417264756917
:100190006E6F204C4C430041726475696E6F204D48
:1001A0006963726F0000000000000000002A2B2825
:1001B000000000000000000000000000000000003F
:1001C00000000000002C9EB4A0A1A2A434A6A7A504
:1001D000AE362D3738271E1F20212223242526B393
:1001E00033B62EB7B89F8485868788898A8B8C8D95
:1001F0008E8F909192939495969798999A9B9C9DA7
:100200002F3130A3AD350405060708090A0B0C0D84
:100210000E0F101112131415161718191A1B1C1D86
:10022000AFB1B0B50005010906A1018502050719A6
:10023000E029E715002501750195088102950175F2
:10024000088103950675081500257305071900290F
:10025000738100C00B0D11241FBECFEFDAE0DEBFAB
:10026000CDBF11E0A0E0B1E0EEE0FFE102C00590FB
:100270000D92AA3AB107D9F722E0AAEAB1E001C08B
:100280001D92A638B207E1F711E0CBE2D1E004C03D
:100290002197FE010E947F0FCA32D107C9F70E9441
:1002A000B80D0C94850F0C940000CF93DF93FC01E4
:1002B000818190915102482F490F5527551F483091
:1002C00051059CF5A281B381109709F52DE432E028
:1002D00033832283208120934F02809350028091A8
:1002E0005202820F808320915302A22FB0915402B8
:1002F0008A2F821B8917E8F481813D91C82FD0E0B5
:10030000C45FDE4F38838F5F8183F2CFD9011896A7
:100310002D913C91199721153105C1F72DE432E05B
:1003200019963C932E931897D5CF80E0DF91CF910B
:10033000089581E0FBCFFC018091FA01882311F13F
:100340003FB7F89482E08093E9002091F200822F79
:1003500090E01816190614F481E090E0882339F033
:10036000289A44E64093F9014091F100408322230A
:1003700039F02091F200211103C02BE62093E80010
:100380003FBF08958FEF9FEF0895CF93DF931F92A4
:10039000CDB7DEB76983DC01ED91FC910280F3817A
:1003A000E02D41E050E0BE016F5F7F4F09950F9057
:1003B000DF91CF91089583E08093E9008091F2006E
:1003C000882319F08AE38093E8000895CF93DF93A0
:1003D0001F92CDB7DEB7FC018485958597FD08C0D7
:1003E0002FEF3FEF358724870F90DF91CF9108954E
:1003F000CE0101960E949B01019719F4898190E03A
:10040000F3CF8FEF9FEFF0CF0F931F93CF93DF9337
:100410001F92CDB7DEB78C01FC018485958597FFCF
:100420000BC0CE0101960E949B01019771F4898156
:1004300090E0F80195878487F801848595850F9071
:10044000DF91CF911F910F9108958FEF9FEFF1CF23
:10045000FC018485958597FD0BC09FB7F89482E0D9
:100460008093E9008091F2009FBF90E0019608958B
:100470009FB7F89482E08093E9008091F2009FBFDB
:1004800090E008954091C1015091C2012091BF01B7
:100490003091C00142175307B4F49091E800957071
:1004A000E1F39091E80092FD19C08093F1008091F2
:1004B000C1019091C20101968F739927892B19F47C
:1004C0008EEF8093E8008091C1019091C201019666
:1004D0009093C2018093C10181E0089580E0089566
:1004E000EF92FF920F931F93CF93DF93F82E192F64
:1004F000E62E042F81E0860F880F0E94420283E0DF
:100500000E944202CF2DD12FEC0EFD2EF11CCE15F4
:10051000DF05B9F007FF13C0FE0184910E9442027B
:10052000182F80E00E944202812321968111EFCF93
:10053000DF91CF911F910F91FF90EF9008958881E7
:10054000EDCF81E0F5CFDF92EF92FF920F931F93F3
:10055000CF93DF93D82E8A01EB017B01E40EF51EC9
:10056000CE15DF0559F0D7FE12C0FE0184910E941E
:10057000420221968111F4CF0FEF1FEFC801DF91E6
:10058000CF911F910F91FF90EF90DF900895888198
:10059000EECF2FB7F89487708093E9009091E80030
:1005A000892F807295FF04C09091F20080E4891B2E
:1005B0002FBF089583E00E94C90290E00895615022
:1005C00030F02091F100FC0120830196F8CF289AA9
:1005D00084E68093F90108958091B70181110DC0DF
:1005E00082E08093B30184E08093B4011092B6015D
:1005F0001092B50181E08093B70183EB91E00895FB
:100600000F931F93CF93DF931F92CDB7DEB782E096
:10061000898342E450E063E371E080E80E94A30232
:100620000E94EC02DC0112960D911C91011511053E
:1006300089F0D801ED91FC910280F381E02DBE019B
:100640006F5F7F4FC801099597FD04C0F8010085D1
:100650001185ECCF89810F90DF91CF911F910F9180
:10066000089581508F3008F047C0E82FF0E0E55C36
:10067000FC4F0C947F0F58035C034A035003540350
:100680007C037C037C035F03650369036D037303D1
:100690007C037703809180008F778093800008959A
:1006A000809180008F7DF9CF80918000877FF5CF8A
:1006B00084B58F7784BD089584B58F7DFBCF8091FD
:1006C00090008F77809390000895809190008F7DA7
:1006D000F9CF80919000877FF5CF8091C0008F7710
:1006E0008093C00008958091C0008F7DF9CF8091E4
:1006F000C200877F8093C2000895CF93DF93282F95
:1007000030E0F901EC5EFE4F8491F901EB50FF4FB0
:10071000D491F901EA52FF4FC491CC23A1F0811189
:100720000E943103EC2FF0E0EE0FFF1FE853FF4F64
:10073000A591B491EC91ED2381E090E009F480E083
:10074000DF91CF91089580E090E0FACF1F93CF938F
:10075000DF93282F30E0F901EC5EFE4F8491F90120
:10076000EB50FF4FD491F901EA52FF4FC491CC23D3
:10077000A9F0162F81110E943103EC2FF0E0EE0F4B
:10078000FF1FE654FF4FA591B4918FB7F894EC91F9
:10079000111108C0D095DE23DC938FBFDF91CF917C
:1007A0001F910895DE2BF8CFCF93DF9390E0FC01EB
:1007B000EB50FF4F24918A529F4FFC018491882374
:1007C000C9F090E0880F991FFC01E455FF4FA591F7
:1007D000B491FC01E654FF4FC591D49161110DC055
:1007E0009FB7F8948C91209582238C93888128233D
:1007F00028839FBFDF91CF910895623051F49FB756
:10080000F8943C91822F809583238C93E8812E2B42
:10081000EFCF8FB7F894EC912E2B2C938FBFEACFAC
:10082000CF93C82F60E00E94D40361E08C2FCF915A
:100830000C94A603CF93C82F60E00E94A60361E04A
:100840008C2FCF910C94D403AF92BF92CF92DF92B2
:10085000EF92FF920F931F93CF93DF93182F809106
:1008600082020E947D03892BD1F3809184020E9431
:100870007D03892BA1F380918402909185020E94CF
:100880001A04CBE4D0E0CE010197F1F78091820207
:10089000909183020E941A048BE990E00197F1F78E
:1008A00080918202909183020E9410042197F1F7B7
:1008B000D8E0C1E02BE4C22ED12C3BE9A32EB12C11
:1008C000E12EF12C8091840290918502012F01701C
:1008D00010FF6EC00E941004C6010197F1F78091CD
:1008E0008202909183020E941A04C5010197F1F7D8
:1008F00080918202909183020E941004C6010197A8
:10090000F1F7802F8C27F594E7941E2DD15009F034
:100910004DC080918402909185020C1709F44BC060
:100920000E941004CBE4D0E0CE010197F1F7809152
:100930008202909183020E941A040BE910E0C80120
:100940000197F1F780918202909183020E94100436
:10095000CE010197F1F780918402909185020E9467
:100960001004CE010197F1F78091820290918302E9
:100970000E941A04C8010197F1F7809182029091B8
:1009800083020E9410042197F1F78BE599E001970B
:10099000F1F790E080E0DF91CF911F910F91FF90F0
:1009A000EF90DF90CF90BF90AF900895C82F88CF81
:1009B0000E941A0491CF0E941A04B4CFCF93C82F7B
:1009C00082EE0E94240480EF0E9424048C2F0E9457
:1009D000240490E080E0CF9108953FB7F89480918F
:1009E000AF019091B001A091B101B091B20126B5D3
:1009F000A89B05C02F3F19F00196A11DB11D3FBF57
:100A0000BA2FA92F982F8827BC01CD01620F711D25
:100A1000811D911D42E0660F771F881F991F4A951F
:100A2000D1F708958F929F92AF92BF92CF92DF92AB
:100A3000EF92FF924B015C010E94ED046B017C017F
:100A40000E94ED046C197D098E099F09683E734070
:100A500081059105A8F321E0821A9108A108B10847
:100A600088EEC80E83E0D81EE11CF11C81149104AD
:100A7000A104B10429F7FF90EF90DF90CF90BF90D1
:100A8000AF909F908F9008957F928F929F92AF9298
:100A9000BF92CF92DF92EF92FF920F931F93CF936B
:100AA000DF93C82E8B017A018091FA01811110C069
:100AB0008FEF9FEFDF91CF911F910F91FF90EF90FC
:100AC000DF90CF90BF90AF909F908F907F900895D0
:100AD0008091C50180FF05C08091E0008260809315
:100AE000E000CE2DDF2DD12C8AEFB82E8C2D877013
:100AF000982E8C2D8072882E8C2D8074782E9AE3FF
:100B0000A92E209719F4DD2009F452C08C2D0E94E3
:100B1000C90281110AC0BA94BB2051F261E070E0B1
:100B200080E090E00E941205ECCF8C171D0611F0BA
:100B30000CF08C2F9FB7F8949092E9002091E80078
:100B400025FD02C09FBFDDCF282F30E0C21BD30B95
:100B5000882029F08150A0F01092F100FBCFF8011D
:100B6000C7FC0AC0815050F041914093F100FACF88
:100B700044914093F10031968150D0F7020F131F3A
:100B8000DD2021F0A092E800D12CDCCF8091E8009C
:100B900085FD07C0A092E800DD24D394209791F250
:100BA000F3CF209779F6772069F2A092E800CACFB8
:100BB0005D9A84E68093C401C7017CCFEF92FF92D7
:100BC0001F93CF93DF931F92CDB7DEB77C01809147
:100BD0005E0281112AC011E010935102109352025B
:100BE00087E592E09093540280935302109256024C
:100BF0001092550285E991E090934E0280934D0248
:100C0000109259021092580210925B0210925A02EE
:100C100010935C0210935D0281EC809357020E9456
:100C2000EC020E94550110935E0282E0898341E04C
:100C300050E0BE016F5F7F4F809150020E944405DB
:100C400097FD08C08091500248E050E0B7018064F1
:100C50000E9444050F90DF91CF911F91FF90EF907C
:100C60000895CF93DF93EC0180910B01882331F03D
:100C700083E00E9444051816190634F081E090E0E4
:100C80009B838A8380E090E0DF91CF910895DC011F
:100C9000FB0112962C9112978481958128171906D1
:100CA00041F491818081813A31F49D7F81E09130DE
:100CB00009F080E008958132E1F79B3029F48281C8
:100CC0001F968C9381E008959A3099F7828150960F
:100CD0008C93F8CFDC01FB0188E4808389E4818375
:100CE00084E482831D969C911D979F709F5B9383E4
:100CF0001D968D919C9124E0969587952A95E1F714
:100D00008F708F5B848385E00895EF92FF920F933D
:100D10001F93CF93DF93FB012081213871F523814D
:100D2000223259F5DC0112964C912481358142170B
:100D3000130619F5EC010B851C85F12CE12C01152E
:100D4000110589F0F801448155816281738180E841
:100D50000E94A3028F3F980749F0E80EF91ED801C0
:100D60000D911C91ECCF81E08F87C701DF91CF916E
:100D70001F910F91FF90EF90089590E080E0F6CFE3
:100D8000CF93DF93CDB7DEB769970FB6F894DEBF88
:100D90000FBECDBFFC01DB018C918F5F8C939E0158
:100DA0002D5F3F4F8DE0D9011D928A95E9F729E02B
:100DB000298384E08A8391E09D8383E08E832A8760
:100DC00021E22B879C879D879F8722E2288B27E043
:100DD0002B8B25E02C8B8E8B20E430E0388F2F8BF3
:100DE000998F82818B8395858685998B8A8B838168
:100DF00080688D8B49E150E0BE016F5F7F4F80E0DE
:100E00000E94A30269960FB6F894DEBF0FBECDBF55
:100E1000DF91CF910895CF92DF92EF92FF920F93DF
:100E20001F93CF93DF936C01EB017B01E40EF51E62
:100E300010E000E0CE15DF0581F069916D30D1F34F
:100E4000D601ED91FC910190F081E02DC60109954C
:100E5000892B19F00F5F1F4FEDCFC801DF91CF91A4
:100E60001F910F91FF90EF90DF90CF900895EF9238
:100E7000FF921F93CF93DF93EC01162FE8E7E60F65
:100E8000683888F4862F90E067FF50C0FC01E05876
:100E9000F10921E030E001C0220FEA95EAF78C81E8
:100EA000822B8C83E0E08E818E17D9F08F81E8173A
:100EB000C1F08885E817A9F08985E81791F08A853F
:100EC000E81779F08B85E81761F0DE01169690E05F
:100ED00080E02D9121115EC08C0F9D1FDC011696C4
:100EE000EC93CE0104960E94DE05EE24E394F12CEF
:100EF000183848F11858DE0186E0112341F01696A3
:100F00009C911697191303C016961C921697815040
:100F100011968111F2CFCE0104960E94DE05C70121
:100F2000DF91CF911F91FF90EF900895EC85FD85A3
:100F3000E80FF91FE491E11119C081E090E09B8373
:100F40008A83F12CE12C812F90E017FF2FC0FC0148
:100F5000E058F10981E090E001C0880FEA95EAF7D6
:100F600080959C8189238C8310E0C5CF8E2F807C57
:100F7000803C49F48C8180648C83EF73E23309F008
:100F800092CFE4E690CFE7FFF9CF8C8182608C832B
:100F9000EF77F4CF01968630910509F09ACF81E082
:100FA00090E09B838A83F12CE12CA2CFEC85FD8518
:100FB000E80FF91F1491112309F4B1CF812F807C20
:100FC000803C49F48C818F7B8C831F73123309F032
:100FD00092CF14E690CF17FFF9CF8C818D7F8C8351
:100FE0001F77F4CF089590E080E00895CF93C82F45
:100FF000823741F08B3631F08CE88C0F823010F064
:10100000C13119F480EE0E94240480EF0E94240470
:101010008C2F0E94240480E0CF910895CF93C82F95
:10102000823741F08B3631F08CE88C0F823010F033
:10103000C13119F480EE0E9424048C2F0E942404F4
:1010400080E0CF9108952F923F924F925F926F92DE
:101050007F928F929F92AF92BF92CF92DF92EF9248
:10106000FF920F931F93CF93DF9300D000D01F9276
:10107000CDB7DEB75C01F62E3A0119011092FC01E2
:101080008091FB01882319F081508093FB0160E07F
:101090008F2D0E94A603F50182810E947D03280105
:1010A000FCE0EF9E400C511C1124892B41F5F50109
:1010B00083810E947D03892B11F581E08093FC01DF
:1010C0004501F4E08F0E911C610186E090E09D8364
:1010D0008C83F40181914F010E947D03F601892BDD
:1010E00009F0CBC0868181119FC021E026832FEFBC
:1010F000C21AD20A8C819D81079709F090C061E0E5
:101100008F2D0E94A603BA82A9822C823D828C80F8
:101110009D801501D12CC12CF10181911F010E94EC
:101120007D03F401892B09F0FBC080818111D0C0BF
:1011300021E020832FEFC21AD20A8FEF881A980A73
:1011400096E0C916D10441F78091FC01882309F487
:101150005FC160E08F2D0E94A603F50180810E948F
:101160007D03892B09F054C1F50181810E947D0323
:10117000892B09F04DC161E08F2D0E94A60388E004
:10118000C82ED12C93E0B92EAA24A394E981FA8128
:101190008191FA83E9830E947D03EC81FD81892B93
:1011A00009F00DC180858111E5C0A0868C819D81EB
:1011B00001969D838C839FEFC91AD90AECE0CE1665
:1011C000D10421F760E08F2D0E94A60361E08F2DEE
:1011D0000E94A60364E170E080E090E00E941205A6
:1011E00060E08F2D0E94A60361E08F2D0F900F907D
:1011F0000F900F900F90DF91CF911F910F91FF9063
:10120000EF90DF90CF90BF90AF909F908F907F90A6
:101210006F905F904F903F902F900C94A603E7E063
:10122000F0E0FD83EC8355CFEC81FD81E60DF71DE9
:10123000808181115CCF8091FB01811158CF81E0C9
:10124000808393E09093FB01EC81FD81EE2051F0CF
:10125000E40DF51D80810E940E0861E08DE00E9482
:10126000A60345CFE00FF11F2081298382EE0E9463
:10127000240489810E942404F0CF8681882339F0D8
:101280009091FB01911103C08150868330CFEC8196
:10129000FD81E60DF71D8081813009F028CF809116
:1012A000FB01811124CF1082F3E0F093FB01EC816C
:1012B000FD81EE2039F0E40DF51D80810E94F607D6
:1012C00060E0CCCFE00FF11F80810E94DE04F8CFF8
:1012D000F301EC0DFD1D808181112CCF8091FB016C
:1012E000811128CF81E0808393E09093FB01EE2071
:1012F00059F0F201EC0DFD1D80810E940E0861E0A5
:101300008DE00E94A60316CFF801EC0DFD1D208193
:101310002B8382EE0E9424048B810E942404EFCF51
:101320008081882339F09091FB01911103C0815095
:10133000808300CFF301EC0DFD1D8081813009F029
:10134000F9CE8091FB018111F5CE1082F3E0F0938C
:10135000FB01EE2041F0F201EC0DFD1D80810E94A9
:10136000F60760E0CDCFF801EC0DFD1D80810E94F5
:10137000DE04F7CFF301EC0DFD1D8081811116CF46
:101380008091FB01811112CFA082B092FB01EE206F
:1013900059F0F201EC0DFD1D80810E940E0861E004
:1013A0008DE00E94A60302CFF801EC0DFD1D908098
:1013B00082EE0E942404892D0E942404F0CF8085AF
:1013C000882339F09091FB01911103C081508087EF
:1013D000EDCEF301EC0DFD1D8081813009F0E6CEEC
:1013E0008091FB018111E2CE1082B092FB01EE20D0
:1013F00041F0F201EC0DFD1D80810E94F60760E0D6
:10140000CFCFF801EC0DFD1D80810E94DE04F7CFE7
:101410000F900F900F900F900F90DF91CF911F9131
:101420000F91FF90EF90DF90CF90BF90AF909F9083
:101430008F907F906F905F904F903F902F90089586
:101440001F920F920FB60F9211248F939F9380914A
:10145000E1009091E100937F9093E10083FF0FC042
:101460001092E90091E09093EB001092EC0092E36F
:101470009093ED001092FA0198E09093F00082FFB3
:1014800022C093E09093E9009091F200992319F023
:101490009AE39093E8009091C401992341F09091D0
:1014A000C40191509093C401911101C05D98909135
:1014B000F901992341F09091F90191509093F9012C
:1014C000911101C0289884FF18C08091E2008E7E9F
:1014D00081608093E2008091E1008F7E8093E10043
:1014E0008091C5018E7E80618093C5019F918F910F
:1014F0000F900FBE0F901F90189580FFF7CF80912F
:10150000E2008E7E80618093E2008091E1008E7E19
:101510008093E1008091C5018E7E8160E5CF1F92AE
:101520000F920FB60F921124CF92DF92EF92FF929B
:101530000F931F932F933F934F935F936F937F93DB
:101540008F939F93AF93BF93EF93FF93CF93DF93CB
:10155000CDB7DEB76C97DEBFCDBF1092E9008091AA
:10156000E80083FF25C068E0CE0145960E94DF02B7
:1015700082EF8093E8008D8987FF39C09091E80061
:1015800090FFFCCF982F907609F034C19E894F8947
:10159000588D2F89F88C911131C0803861F5809178
:1015A000C6018093F1001092F1008EEF8093E80065
:1015B0006C960FB6F894DEBF0FBECDBFDF91CF9112
:1015C000FF91EF91BF91AF919F918F917F916F911B
:1015D0005F914F913F912F911F910F91FF90EF904D
:1015E000DF90CF900F900FBE0F901F9018959EEF39
:1015F0009093E800C7CF1092F100D5CF913059F405
:101600008111D3CF4130510581F68091C6018D7F84
:101610008093C601CACF933049F48111C6CF4130BF
:10162000510519F68091C6018260F2CF953041F4E0
:101630008091E80080FFFCCF20682093E300B5CFC5
:10164000963009F0A9C00B8D1C8D22E01092E900A4
:101650001092C2011092C101F2122EC01092C0016C
:101660001092BF010E9400031F8299E09983FA82C1
:1016700091E09E8390EA98879AEF99872091C10123
:101680003091C201275F3F4F3C832B838D831092A3
:10169000E9001092C2011092C1011093C0010093A1
:1016A000BF0149E050E0BE016F5F7F4F80E00E94C4
:1016B000A3020E94000379CF1093C0010093BF01E1
:1016C0000E94EC02DC0112960D911C91011511058E
:1016D00009F451C1D801ED91FC910480F581E02D10
:1016E000BE016B5E7F4FC8010995009709F03EC1AE
:1016F000F80100851185EACFF3E0FF120EC08F8953
:10170000882309F440C0823061F440E86DE087E945
:1017100091E00E947002811148CF81E28093EB003A
:1017200047CF813029F440E86BE08BE891E0F1CFBE
:10173000833099F70E94EC02DC011296ED90FC9048
:101740008E010F5F1F4F6801E114F10479F0D7019A
:10175000ED91FC910680F781E02DB801C701099554
:10176000080F111DF701E084F184EECFD8011C921F
:10177000F60101900020E9F73197BF016C197D094E
:1017800040E0C601C6CF65E771E0FB01449150E03F
:1017900080E80E94A30209CF973009F4BECF9830A9
:1017A00021F481E08093F10000CF993009F0FDCE63
:1017B000837009F0B2CFEDE0F1E081E031E096E333
:1017C0002191222371F08093E9003093EB00DF0137
:1017D00011972C912093EC009093ED008F5F873050
:1017E00079F78EE78093EA001092EA008F89809360
:1017F000FA01DBCE8B8D9C8D1092E9001092C20114
:101800001092C1019093C0018093BF01898D811115
:1018100092C08E899D89913A49F4813209F07DCF39
:1018200047E050E064E071E080E0B3CF913209F02E
:1018300074CF833269F48F89988DB0E0A0E08093F3
:10184000000190930101A0930201B0930301ADCE7A
:10185000803269F48091E80082FFFCCF67E084E089
:1018600091E00E94DF028BEF8093E8009ECE8232EF
:1018700009F09BCE8F8980930B01EEEFFFE78591F6
:1018800094918B3F9C4D51F1E0E0F8E08091040190
:1018900090910501A0910601B0910701803B944011
:1018A000A105B105F1F480910B0180FD1AC0EE3F56
:1018B0008AE0F80789F587E797E79183808380912D
:1018C00060008093C30188E19BE00FB6F894A8956F
:1018D000809360000FBE9093600067CEEEEFFAE059
:1018E000D5CF808191818737974709F05ECEA89543
:1018F000809160008861809360008091C301809333
:101900006000EE3F2AE0F20789F08091FE0A909194
:10191000FF0A9183808349CE808191818737980720
:1019200051F29093FF0A8093FE0AC5CF1092FF0AEE
:101930001092FE0A3ACE0E94EC02DC0112960D9142
:101940001C910115110509F4E8CED801ED91FC9127
:101950000190F081E02DBE016B5E7F4FC8010995BB
:10196000811123CEF80100851185EBCF18161906D9
:101970000CF41BCED2CEF1E0FF12BECE69E771E0CF
:1019800004CF1F920F920FB60F9211242F933F9303
:101990008F939F93AF93BF938091AB019091AC01D4
:1019A000A091AD01B091AE013091AA0123E0230FC7
:1019B0002D3758F50196A11DB11D2093AA018093E2
:1019C000AB019093AC01A093AD01B093AE018091B7
:1019D000AF019091B001A091B101B091B201019617
:1019E000A11DB11D8093AF019093B001A093B101EF
:1019F000B093B201BF91AF919F918F913F912F9181
:101A00000F900FBE0F901F90189526E8230F029697
:101A1000A11DB11DD2CFCF93109200021092FF01F1
:101A200088EE93E0A0E0B0E0809301029093020280
:101A3000A0930302B093040283E891E09093FE0127
:101A40008093FD018FEF9FEF90930A02809309022C
:101A5000109277021092760281EA91E090937502DB
:101A60008093740280916C02811113C010926702FE
:101A70001092660285E292E0909369028093680278
:101A80008FE290E090936B0280936A0281E08093F2
:101A90006C0280915E0281112AC0C1E0C0935102A4
:101AA000C093520287E592E09093540280935302D0
:101AB000109256021092550285E991E090934E02E1
:101AC00080934D02109259021092580210925B02BC
:101AD00010925A02C0935C02C0935D0281EC809325
:101AE00057020E94EC020E945501C0935E02E091F1
:101AF0005802F0915902309791F586E692E0909362
:101B000059028093580280915A0290915B02209171
:101B10006A0230916B02820F931F90935B02809355
:101B20005A0285EA91E090938102809380028CE0D2
:101B300090E090938302809382028AE090E09093F9
:101B40008502809384028CE090E00E9410048091D2
:101B5000840290918502CF910C941004FC01808145
:101B600091810097D9F786E692E091838083CBCF6D
:101B7000789484B5826084BD84B5816084BD85B568
:101B8000826085BD85B5816085BD80916E00816074
:101B900080936E001092810080918100826080931A
:101BA000810080918100816080938100809180001C
:101BB0008160809380008091910082608093910089
:101BC000809191008160809391008091900081606C
:101BD000809390008091C10084608093C1008091C7
:101BE000C10082608093C1008091C10081608093B8
:101BF000C1008091C30081608093C3008091C000C8
:101C000082608093C0008091C20081608093C20096
:101C100080917A00846080937A0080917A0082605B
:101C200080937A0080917A00816080937A0080911D
:101C30007A00806880937A001092FA011092C601AF
:101C40001092C5018091D70081608093D70080EA0F
:101C50008093D80089B5806189BD89B5826089BDCE
:101C600009B400FEFDCF61E070E080E090E00E94EA
:101C700012058091D8008F7C80618093D80080917C
:101C8000E000807F8093E0008091E1008E7E809371
:101C9000E1008DE08093E200559A209A5D982898A3
:101CA00061E00E94D40361E08DE00E94A6038AEA0D
:101CB0000E942404892BD9F76AE070E080E090E06C
:101CC0000E941205C9E7D1E062E089910E94D40325
:101CD00081E0CF37D807C1F761E088E00E94D403E4
:101CE0008EE00E947D03892BB1F48FE00E947D037A
:101CF000019789F481E08093F80161E08DE00E9412
:101D0000A60364EC79E080E090E00E94120560E0B8
:101D10008DE00E94A6038FE00E947D03892B51F580
:101D20008EE00E947D03019729F582E08093F801FF
:101D300061E08DE00E94A60368EE73E080E090E031
:101D40000E94120560E08DE00E94A60368EE73E039
:101D500080E090E00E94120561E08DE00E94A60301
:101D600064EF71E080E090E00E94120560E08DE099
:101D70000E94A60380E10E947D03892BF1F581E199
:101D80000E947D030197C9F583E08093F80161E02B
:101D90008DE00E94A60364EF71E080E090E00E9475
:101DA000120560E08DE00E94A60364EF71E080E020
:101DB00090E00E94120561E08DE00E94A60364EFAE
:101DC00071E080E090E00E94120560E08DE00E94EA
:101DD000A60364EF71E080E090E00E94120561E0EC
:101DE0008DE00E94A60364EF71E080E090E00E9425
:101DF000120560E08DE00E94A603C3E4D1E062E03A
:101E000089910E94D40381E0C934D807C1F761E009
:101E100086E00E94D40383E00E947D03892B41F475
:101E200082E00E947D03019719F481E08093DF0135
:101E300082E00E947D03892B41F483E00E947D03B0
:101E4000019719F482E08093DF0181E00E947D0315
:101E5000892B41F480E00E947D03019719F483E00F
:101E60008093DF0160E08DE00E94A603C0E0D0E037
:101E7000CC24C394E090F80109E411E020EE31E0B5
:101E80004CEE51E068E089E791E00E94230882E08F
:101E9000C82EE090DF0103E111E027EC31E043EDD3
:101EA00051E066E083E491E00E94230882E10E9411
:101EB0007D03892BF9F488E70E940E0864EF71E036
:101EC00080E090E00E94120588E70E94F60761E03A
:101ED0008DE00E94A60361E082E10E94A60360ED0E
:101EE00077E080E090E00E941205209709F20E94BE
:101EF0000000BECF60E08DE00E94A603F6CFEE0F9B
:0E1F0000FF1F0590F491E02D0994F894FFCF97
:101F0E00FFFFFFFF00E100000000000000C1808124
:101F1E000000004E4F4C4D5354525057565551756C
:101F2E00726B74115A76051A35223A75726B7445B6
:101F3E005A76031A35223A3D362E3E455A76051A02
:101F4E0035223A0302010004074243404147484606
:101F5E00444B4A4945151C444D3A5A76051A3522CA
:101F6E002175726B74455A76031A35223A3D362E18
:101F7E003E455A76051A35223A0E0F10110B0900FE
:101F8E00000000C5013106DA02DB012802E6010479
:101F9E0002000000004706C00685066A0600000023
:0A1FAE000037070B07F307F20700E6
:00000001FF
